:10000000171100001301C1FFEF0080026F00000014
:10001000411E000000726973637600011400000045
:100020000572763332693270305F6D3270300000A5
:10003000130101FC232E1102232C8102130401045D
:100040009307401F03AE070003A3470083A8870060
:1000500003A8C70003A5070183A5470103A68701DD
:1000600083A6C70103A7070283A747022320C4FD75
:10007000232264FC232414FD232604FD2328A4FC4E
:10008000232AB4FC232CC4FC232ED4FC2320E4FE1E
:100090002322F4FE9307A0002326F4FEB7170000E6
:1000A000938787FF2324F4FE832784FE37170000FD
:1000B0001307070123A0E700930704FC8325C4FE70
:1000C00013850700EF000001930810007300000083
:1000D0006F000000130101FD2326810213040103B8
:1000E000232EA4FC232CB4FC232604FE6F00000E58
:1000F000232204FE232404FE6F00800A832784FE4B
:10010000939727000327C4FDB307F70003A7070051
:10011000832784FE93871700939727008326C4FDC7
:10012000B387F60083A7070063D6E706832784FE1C
:10013000939727000327C4FDB307F70083A70700A1
:100140002320F4FE832784FE9387170093972700CC
:100150000327C4FD3307F700832784FE9397270006
:100160008326C4FDB387F6000327070023A0E7001A
:10017000832784FE93871700939727000327C4FDE6
:10018000B307F700032704FE23A0E700930710003E
:100190002322F4FE832784FE938717002324F4FE92
:1001A000032784FD8327C4FEB307F7409387F7FF37
:1001B000032784FEE344F7F4832744FE63820702A7
:1001C0008327C4FE938717002326F4FE832784FD2C
:1001D0009387F7FF0327C4FEE34CF7F06F0080001E
:1001E00013000000130000000324C10213010103E7
:1001F00067800000030000000C0000000700000002
:10020000090000000E000000000000000B000000CC
:1002100006000000040000000F0000004743433ABE
:100220002028474E55292031302E312E30004120D4
:10023000000000726973637600011600000004106C
:0F0240000572763332693270305F6D3270300084
:00000001FF
